:100000000C9434000C9451000C9451000C94510049
:100010000C9451000C9451000C9451000C9451001C
:100020000C9451000C9451000C9451000C94C90193
:100030000C9451000C9451000C9463010C945100E9
:100040000C9451000C9451000C9453000C945100EA
:100050000C9451000C9451000C9451000C945100DC
:100060000C9451000C94510011241FBECFEFD8E026
:10007000DEBFCDBF11E0A0E0B1E0EAE0F5E002C0F4
:1000800005900D92A230B107D9F721E0A2E0B1E0CE
:1000900001C01D92A83AB207E1F70E9475010C94C5
:1000A00083020C9400001F920F920FB60F9211243E
:1000B0002F933F934F935F938F939F93EF93FF9370
:1000C0005091C6002091030130E0C90101968F775D
:1000D0009078992324F4019780689F6F019640914E
:1000E0000201481731F0F901EC5FFE4F5083809315
:1000F0000301FF91EF919F918F915F914F913F91FC
:100100002F910F900FBE0F901F9018958AB18F7D81
:100110008AB98AB18B7F8AB98AB1877F8AB98AB155
:100120008F7E8AB920E014C0822F90E0FC01E05756
:10013000FE4F31E03083FC01E457FE4F3083FC0179
:10014000E857FE4F1082FC01EC57FE4F10822F5FE4
:10015000243050F3089520E055C0822F90E0FC0138
:10016000E857FE4F3081332331F0FC01E857FE4F52
:100170003150308346C0211109C039B135FB3327D6
:1001800030F9FC01E457FE4F30831DC0213049F4A3
:1001900039B132FB332730F9FC01E457FE4F30838D
:1001A00012C0223049F439B133FB332730F9FC0156
:1001B000E457FE4F308307C039B132953170FC01EE
:1001C000E457FE4F3083FC01E057FE4F3081313061
:1001D00081F4FC01E457FE4F308131110AC034E153
:1001E000FC01E857FE4F308331E0FC01EC57FE4F35
:1001F0003083FC01E457FE4F3081FC01E057FE4F95
:1002000030832F5F243008F4A8CF0895E82FF0E062
:10021000EC57FE4F80811082089584B1806284B9CA
:1002200084B1826084B984B18B7F84B985B18B7FBE
:1002300085B90895CF9380910001811103C084E6B0
:1002400080930001809100018150809300010E9401
:10025000AB00C0E025C08C2F90E0FC01EC56FE4FB7
:1002600020812223E1F0FC01EE0FFF1FE956FE4F33
:10027000208131812115310551F0880F991FFC0132
:10028000E956FE4F215031093183208308C0FC011B
:10029000EC56FE4F108260E08C2F0E945302CF5F1D
:1002A000C330C8F28EB38E7F8EBBCF9108958091FC
:1002B0000001811107C084E68093000195B180E2BE
:1002C000892785B908951F920F920FB60F921124B6
:1002D0008F9387B5875087BD8EB381608EBB8F911A
:1002E0000F900FBE0F901F901895F8940E9459021E
:1002F0000E946A020E940D010E9435020E9486003F
:1003000078940E945701F0990E941A0180E00E949F
:100310000601882389F08091940181110DC081E04C
:100320008093940184EF91E09093980180939701DA
:1003300061E080E00E94530281E00E940601882370
:1003400089F08091950181110DC081E08093950124
:1003500084EF91E090939A018093990161E081E0AC
:100360000E94530282E00E940601882351F280918C
:1003700096018111C6CF81E08093960184EF91E0D0
:1003800090939C0180939B0161E082E00E94530264
:10039000B8CF1F920F920FB60F9211242F933F9355
:1003A0008F939F93EF93FF9380919E018F5F809334
:1003B0009E01853119F481E080939E0120E047C0C1
:1003C000822F90E0FC01E156FE4F3081311109C0CF
:1003D000880F991FFC01EE55FE4F808180939D018F
:1003E00008C0880F991FFC01EE55FE4F8181809354
:1003F0009D0121110EC090919E0180919D01891750
:1004000020F08BB180688BB921C08BB18F778BB90D
:100410001DC0213071F490919E0180919D0189173A
:1004200020F085B1886085B911C085B1877F85B915
:100430000DC090919E0180919D01891720F085B19A
:10044000806185B903C085B18F7E85B92F5F233068
:1004500008F4B6CFFF91EF919F918F913F912F912B
:100460000F900FBE0F901F9018958AB180688AB9BF
:1004700084B1886184B981E080939E0120E010C03E
:10048000822F90E0FC01EE0FFF1FEE55FE4F31E092
:10049000308332E03183FC01E156FE4F10822F5F42
:1004A000233070F30895E82FF0E0E156FE4F6083AB
:1004B000089516BC14BC15BC84B5826084BD85B596
:1004C000836085BD89EF87BDEEE6F0E080818260C4
:1004D000808308951092850010928400109280000D
:1004E000E1E8F0E0108288E080838081836080838F
:1004F0001092890089EF80938800EFE6F0E0808118
:0A050000826080830895F894FFCF15
:02050A0064008B
:00000001FF
