S01400004163746976696461643456322E73726563CB
S11300000C9447000C9464000C9464000C946400F9
S11300100C9464000C9464000C9464000C946400CC
S11300200C9464000C9464000C9464000C942E08EA
S11300300C9464000C9464000C944A060C946400C0
S11300400C9464000C9464000C94E7000C94640019
S11300500C9464000C9464000C9464000C9464008C
S11300600C9464000C9464005D0164016C017401DF
S11300707C0182018A019A01B9016E0577057A052E
S113008043069405B405D105E5051F06320611247F
S11300901FBECFEFD8E0DEBFCDBF11E0A0E0B1E0DE
S11300A0EEE8F2E102C005900D92A830B107D9F74D
S11300B022E0A8E0B1E001C01D92A333B207E1F74A
S11300C00E9472060C9445090C940000E8E0F1E0EB
S11300D084E1838386E0808388E081838AE082836D
S11300E00895609308017093090180930A01909325
S11300F00B010895E8E0F1E09381981B892F20819A
S1130100921740F0492F50E030E02F5F3F4F4217E5
S11301105307CCF020910901821740F0482F50E09A
S113012030E02F5F3F4F421753077CF020910A01C4
S1130130821768F090E030E02F5F3F4F82179307FB
S113014044F083E0089580E0089581E0089583E019
S1130150089582E008959091C00095FFFCCF8093AC
S1130160C600089581E0209125019091240129136E
S113017001C080E008958091250120912401821717
S1130180A1F030E0F901EA5DFE4F80812F5F3F4F1F
S11301902F773078332334F42150310920683F6FAE
S11301A02F5F3F4F20932401089580E0089510921B
S11301B02501109224011092C50087E08093C400A9
S11301C088E98093C10086E08093C20008951F925D
S11301D00F920FB60F9211242F933F934F935F9377
S11301E08F939F93EF93FF935091C6002091250125
S11301F030E0C90101968F779078992324F4019710
S113020080689F6F019640912401481731F0F901ED
S1130210EA5DFE4F508380932501FF91EF919F91FA
S11302208F915F914F913F912F910F900FBE0F903F
S11302301F901895EF92FF921F93CF93DF93D82FBF
S11302407B01142F85E50E94AB008EE40E94AB0075
S113025085E40E94AB0082E50E94AB0081E0810F3F
S11302600E94AB008AE30E94AB008D2F0E94AB007A
S1130270C0E008C0F701EC0FF11D8081D8270E946F
S1130280AB00CF5FC117B0F38D2F0E94AB00DF919D
S1130290CF911F91FF90EF9008958EC00E94BB00F4
S11302A0E09123014E2F50E04930510508F082C0FF
S11302B0FA01EC5CFF4F0C94250991E0853509F0B7
S11302C090E09093230178C08E3411F482E001C051
S11302D080E08093230170C0853411F483E001C071
S11302E080E08093230168C0823511F484E001C06A
S11302F080E08093230160C08093220185E0809395
S113030023015AC08A3311F486E001C080E080934F
S1130310230152C080932101809317011092180188
S113032080912201823010F087E001C088E0809340
S1130330230142C090911801983028F4E92FF0E08D
S1130340E75EFE4F80832091170182278093170177
S11303509F5F90931801892F90E02091220130E053
S113036021503109821793073CF188E080932301DF
S113037023C09091170189131AC0809121018093A1
S113038015014091180140930C0120E00BC0822F0D
S113039090E0FC01E75EFE4F3081FC01E35FFE4F1D
S11303A030832F5F241798F381E080931601109215
S11303B0230102C0109223010E94B20081116ECF6A
S11303C0089580911601089520911501FC01208360
S11303D030910C01FA01308320E00BC0822F90E0B1
S11303E0FB01E80FF91FDC01A35FBE4F8C918083F2
S11303F02F5F231798F310921601089587B1816037
S113040087B988B18E7F88B91092A601089588B102
S1130410816088B981E08093A601089588B18E7FB8
S113042088B91092A6010895635E7F4F8F4F9F4F46
S11304302AE330E040E050E00E940309C901089536
S1130440DC015B968C915B97E82FF0E03396EE0F1E
S1130450FF1FEA0FFB1F718360838F5F5B968C9392
S11304605B978A3018F05B961C925B975A968C9136
S11304705A978A3018F48F5F5A968C930895DC014A
S1130480892BB9F161157105B1F141155105A9F136
S113049011967C936E9313965C934E9312971596D4
S11304A03C932E9314975A961C925A975B961C92DF
S11304B05B9782E090E05D969C938E935C9780E9D5
S11304C091E05F969C938E935E9781E090968C93D7
S11304D0909790E00AC0E92FF0E03396EE0FFF1FEB
S11304E0EA0FFB1F118210829F5F9A30A0F380E015
S11304F0089581E0089581E0089581E00895CF9200
S1130500DF92EF92FF920F931F93CF93DF9300D06C
S113051000D0CDB7DEB719821A821B821C820097E5
S1130520C1F161157105B9F17B018C01DC01ED911B
S1130530FC91119714968D919C9115970995D8016A
S11305401296ED91FC911397BE016F5F7F4F149645
S11305508D919C91159709958823F9F069817A8189
S11305608B819C810E9414026C01F801848D958D0D
S1130570C816D906A0F0868D978D8C159D0588F038
S1130580B601C8010E942002D701CD92DC9280E01E
S113059009C081E007C081E005C082E003C083E0B8
S11305A001C083E00F900F900F900F90DF91CF91D7
S11305B01F910F91FF90EF90DF90CF9008958AB133
S11305C08F7D8AB98AB18B7F8AB98AB1877F8AB9CC
S11305D08AB18F7E8AB920E014C0822F90E0FC019A
S11305E0ED54FE4F31E03083FC01E155FE4F308382
S11305F0FC01E555FE4F1082FC01E955FE4F1082C7
S11306002F5F243050F3089520E055C0822F90E0EE
S1130610FC01E555FE4F3081332331F0FC01E555F3
S1130620FE4F3150308346C0211109C039B135FB2A
S1130630332730F9FC01E155FE4F30831DC02130D2
S113064049F439B132FB332730F9FC01E155FE4F4F
S1130650308312C0223049F439B133FB332730F9E7
S1130660FC01E155FE4F308307C039B1329531703A
S1130670FC01E155FE4F3083FC01ED54FE4F308107
S1130680313081F4FC01E155FE4F308131110AC053
S113069034E1FC01E555FE4F308331E0FC01E955BE
S11306A0FE4F3083FC01E155FE4F3081FC01ED54D7
S11306B0FE4F30832F5F243008F4A8CF0895E82F2D
S11306C0F0E0E955FE4F80811082089590E02BE020
S11306D0289FF001299FF00D1124E654FE4F228536
S11306E0283028F52BE0289FF001299FF00D1124D4
S11306F0E654FE4F218530E0E20FF31F60832F5F45
S11307003F4F27703078332334F421503109286F58
S11307103F6F2F5F3F4F3BE0389FF001399FF00D53
S11307201124E654FE4F218782858F5F82870895C6
S113073080E013C0282F30E0F901E954FE4F108205
S11307409BE0929FF001939FF00D1124E654FE4F1D
S1130750DF011D929A95E9F78F5F833058F308956E
S1130760CF93DF938130A1F028F08230F9F0833009
S113077059F135C0C7EBD1E0688180E00E9466037F
S1130780188289818F5F89838A818F5F8A8327C0DA
S1130790C7EBD1E0698181E00E94660319828881F8
S11307A08F5F88838A818F5F8A8319C0C7EBD1E00A
S11307B06A8182E00E9466031A8289818F5F89833D
S11307C088818F5F88830BC0E7EBF1E080818F5FC6
S11307D0808381818F5F818382818F5F8283DF91B8
S11307E0CF910895482F50E08BE0849FF001859FBE
S11307F0F00D1124E654FE4F82858823C1F18BE06D
S1130800849FF001859FF00D1124E654FE4F20854E
S113081030E0E20FF31F808181111AC02F5F3F4F38
S113082027703078332334F421503109286F3F6F17
S11308302F5F3F4F8BE0849FF001859FF00D1124C3
S1130840E654FE4F208782858150828781E0089597
S11308509BE0949FB001959F700D1124AB01465409
S11308605E4FFA01E20FF31F8150808380E0089508
S1130870EFE6F0E080818D7F80831092800082E03B
S11308808093810010928500109284000895109244
S113089080008BE0809381001092890089EF80931F
S11308A088001092850010928400EFE6F0E08081C9
S11308B08260808308958091E401811118C01092B0
S11308C0DC011092DB011092E3018AE090E0909346
S11308D0E2018093E10184B1826084B985B18260D0
S11308E085B987B3826087BB81E08093E401089572
S11308F0CF93DF938091E4018230C9F0833061F1BA
S1130900813009F054C0B99B52C087B3826087BB61
S11309108091E3018F5F8093E3018A3008F447C03C
S113092085B18D7F85B982E08093E40140C08091D8
S1130930E1019091E201892B39F481E08093DB019C
S113094085E08093E40133C01A9B31C00E943804CF
S113095083E08093E4012BC01A991AC0C0918400EB
S1130960D09185000E944704CE0196958795A0E01A
S1130970B0E08093DD019093DE01A093DF01B0939A
S1130980E00181E08093DC0184E08093E4010FC006
S1130990809184009091850081369A4E40F00E94A7
S11309A0470481E08093DB0185E08093E401DF91DB
S11309B0CF91089508958091DC01882391F080916E
S11309C0DD019091DE01A091DF01B091E001FB0116
S11309D080839183A283B3831092DC011092E4019B
S11309E081E0089580910601811107C084E6809317
S11309F0060195B180E2892785B90895282F30E052
S1130A00F901ED5FFD4F9081911111C0F901ED5F86
S1130A10FD4F91E09083220F331FF901E350FE4F05
S1130A2024EF31E03183208361E00E94B808089507
S1130A30CF93DF93CDB7DEB728970FB6F894DEBF18
S1130A400FBECDBFE5EFF1E08081918199838A8368
S1130A50828193819B838C83848195819D838E8302
S1130A60868197819F83888748E0BE016F5F7F4FAF
S1130A7085EA0E941A0128960FB6F894DEBF0FBECD
S1130A80CDBFDF91CF9108951F93CF93DF9300D013
S1130A901F92CDB7DEB79B019091030291110AC05A
S1130AA090910402911108C090910502992331F0AC
S1130AB091E005C091E003C091E001C090E0482FAF
S1130AC050E0FA01E05BF109EA30F10508F0DBC01F
S1130AD0D901182FE35CFF4F0C9425091B8241E0D8
S1130AE0BE016D5F7F4F84EA0E941A01CCC00E9450
S1130AF01805C9C0992359F0898381E08A8342E0AB
S1130B00BE016F5F7F4F86EA0E941A01BCC08C91C0
S1130B108093060249831A8242E0BE016F5F7F4FD1
S1130B2086EA0E941A01AFC0992359F0898381E0B3
S1130B308A8342E0BE016F5F7F4F86EA0E941A01FA
S1130B40A2C06C9111967C91119712968C9194E1AC
S1130B500E94710019831A8242E0BE016F5F7F4FC9
S1130B6086EA0E941A018FC0992359F0898381E093
S1130B708A8342E0BE016F5F7F4F86EA0E941A01BA
S1130B8082C066E078E08AE09C910E94710019833B
S1130B901A8242E0BE016F5F7F4F86EA0E941A010B
S1130BA072C0E5EFF1E01182108213821282158285
S1130BB014821782168289831A8242E0BE016F5F13
S1130BC07F4F86EA0E941A015EC0992359F08983F7
S1130BD081E08A8342E0BE016F5F7F4F86EA0E9414
S1130BE01A0151C08C9190E0982F882711962C916E
S1130BF01197822BE0E0F1E09183808312968C912F
S1130C00129790E0982F882713962C911397822B94
S1130C109383828314968C91149790E0982F88275D
S1130C2015962C91822B9583848349831A8242E002
S1130C30BE016F5F7F4F86EA0E941A0124C012969C
S1130C404C91129711966C9111978C910E94BE0849
S1130C5019831A8242E0BE016F5F7F4F86EA0E94C9
S1130C601A0111C08C91882319F00E94070202C056
S1130C700E940E0219831A8242E0BE016F5F7F4F09
S1130C8086EA0E941A010F900F900F90DF91CF9186
S1130C901F9108951F920F920FB60F9211248F93F4
S1130CA09F93AF93BF938EB381608EBB8091E90114
S1130CB09091EA01A091EB01B091EC010196A11D84
S1130CC0B11D8093E9019093EA01A093EB01B093E5
S1130CD0EC01BF91AF919F918F910F900FBE0F9038
S1130CE01F901895CF93DF93CDB7DEB72A970FB631
S1130CF0F894DEBF0FBECDBF0E9466000E94D700ED
S1130D000E94FE010E94DF020E9498030E949A083A
S1130D100E94C7080E94D8080E94F10820E030E031
S1130D204BED54E06AED74E087E092E00E943F02EC
S1130D3084B1806284B90E94070278940E94F2040C
S1130D40F09B95C08EB38E7F8EBB0E94040310E08F
S1130D5038C0E12EF12CF701ED5FFD4F808188232F
S1130D6079F1F701EE0FFF1FE350FE4F808191816F
S1130D70009731F10197F701EE0FFF1FE350FE4F8B
S1130D8091838083892BE1F460E0812F0E94B8086D
S1130D90F701ED5FFD4F1082F701EE0FFF1FEB50DF
S1130DA0FE4F8081918101969183808381E0810F40
S1130DB0898341E0BE016F5F7F4F83EA0E941A017D
S1130DC01F5F133030F280910602813001F51CC0A0
S1130DD0812F90E0FC01EE0FFF1FE351FE4F2081B5
S1130DE031812115310571F021503109880F991F86
S1130DF0FC01E351FE4F31832083232B19F4812F0F
S1130E000E94FE041F5F01C010E0133008F38091BC
S1130E10E1019091E201009729F001979093E2019A
S1130E208093E10180910601811103C084E68093DF
S1130E300601809106018150809306018091F3019F
S1130E409091F401009729F001979093F401809315
S1130E50F3018091F3019091F401892B41F484EF23
S1130E6091E09093F4018093F3010E9418050E948D
S1130E70780480E00E945F03882391F08091E90167
S1130E809091EA01A091EB01B091EC018093E5010E
S1130E909093E601A093E701B093E8010E945B04FC
S1130EA08091DC01882309F441C0BE016F5F7F4F4C
S1130EB087E092E00E947F02811138C0898189878E
S1130EC041E0BE01675F7F4F81EA0E941A01898178
S1130ED00E947A00833071F4E5EFF1E08681978116
S1130EE001969783868340E060E070E087EA0E9481
S1130EF01A011CC090910602911103C00E94B00314
S1130F0015C0882319F0813019F403C080E001C0B2
S1130F1082E090E0880F991FFC01E050FF4F208190
S1130F203181FC01E351FE4F318320838091DB0149
S1130F30882351F01092DB011092E40140E060E05C
S1130F4070E080EA0E941A018091060281116EC04D
S1130F5081E00E945F03882309F44EC0E090E90118
S1130F60F090EA018091E5019091E601E81AF90A0E
S1130F7000E011E0F801F182E0824701A12CB12CDC
S1130F80A7E5B0E0A50194010E942B090F2EFCE215
S1130F904F2E512C612C712CF02DA30192010E9433
S1130FA00309F80133832283A5E8B0E0A501940185
S1130FB00E942B09A30192010E940309F8013583C1
S1130FC02483EF2889F060EC76EB86E090E0A501BD
S1130FD094010E94030939832A8342E0BE016F5FB2
S1130FE07F4F88EA0E941A0180E00E94F20388235E
S1130FF019F080E00E94FE0482E00E945F038823CF
S113100041F081E00E94F203882319F081E00E94FC
S1131010FE0483E00E945F03882341F082E00E9483
S1131020F203882319F082E00E94FE040E944D011D
S11310300E94E101882309F481CEAE01475F5F4F2E
S1131040BE016F5F7F4FCE010A960E94E401BE018C
S11310506F5F7F4F8A850E94440570CE1F920F9266
S11310600FB60F9211242F933F938F939F93EF9377
S1131070FF93809129028F5F80932902853119F4AF
S113108081E08093290220E047C0822F90E0FC0198
S1131090E65DFD4F3081311109C0880F991FFC01B5
S11310A0E35DFD4F80818093280208C0880F991F5B
S11310B0FC01E35DFD4F81818093280221110EC064
S11310C09091290280912802891720F08BB18068C1
S11310D08BB921C08BB18F778BB91DC0213071F4CE
S11310E09091290280912802891720F085B18860A7
S11310F085B911C085B1877F85B90DC0909129024A
S113110080912802891720F085B1806185B903C0D8
S113111085B18F7E85B92F5F233008F4B6CFFF9158
S1131120EF919F918F913F912F910F900FBE0F9050
S11311301F9018958AB180688AB984B1886184B98E
S113114081E08093290220E010C0822F90E0FC010E
S1131150EE0FFF1FE35DFD4F31E0308332E031835A
S1131160FC01E65DFD4F10822F5F233070F308957C
S1131170E82FF0E0E65DFD4F60830895E82FF0E08E
S1131180EE0FFF1FE35DFD4F60834183089516BC9E
S113119014BC15BC84B5826084BD85B5836085BDEF
S11311A089EF87BDEEE6F0E0808182608083089558
S11311B0109285001092840010928000E1E8F0E023
S11311C0108288E08083808183608083109289000C
S11311D089EF80938800EFE6F0E08081826080836D
S11311E008951092B200A0EBB0E01C92E1EBF0E0A5
S11311F010828C9182608C9380818260808381E0F4
S11312008093B3000895A1E21A2EAA1BBB1BFD0113
S11312100DC0AA1FBB1FEE1FFF1FA217B307E407D1
S1131220F50720F0A21BB30BE40BF50B661F771F29
S1131230881F991F1A9469F7609570958095909509
S11312409B01AC01BD01CF010895EE0FFF1F059076
S1131250F491E02D09940E943609A59F900DB49F46
S1131260900DA49F800D911D11240895A29FB0019B
S1131270B39FC001A39F700D811D1124911DB29FC6
S1111280700D811D1124911D0895F894FFCF67
S10B128ED007D007D00764006B
S9030000FC
